{
  "contractName": "Adoption",
  "abi": [
    {
      "constant": true,
      "inputs": [
        {
          "name": "",
          "type": "uint256"
        }
      ],
      "name": "likeNum",
      "outputs": [
        {
          "name": "",
          "type": "uint256"
        }
      ],
      "payable": false,
      "stateMutability": "view",
      "type": "function",
      "signature": "0x3b0a776b"
    },
    {
      "constant": true,
      "inputs": [
        {
          "name": "",
          "type": "uint256"
        }
      ],
      "name": "adopters",
      "outputs": [
        {
          "name": "",
          "type": "address"
        }
      ],
      "payable": false,
      "stateMutability": "view",
      "type": "function",
      "signature": "0x43ae80d3"
    },
    {
      "constant": true,
      "inputs": [
        {
          "name": "",
          "type": "uint256"
        }
      ],
      "name": "likeTotal",
      "outputs": [
        {
          "name": "",
          "type": "uint256"
        }
      ],
      "payable": false,
      "stateMutability": "view",
      "type": "function",
      "signature": "0x5d47395f"
    },
    {
      "constant": true,
      "inputs": [],
      "name": "temp",
      "outputs": [
        {
          "name": "",
          "type": "string"
        }
      ],
      "payable": false,
      "stateMutability": "view",
      "type": "function",
      "signature": "0x673402e5"
    },
    {
      "constant": false,
      "inputs": [
        {
          "name": "petId",
          "type": "uint256"
        }
      ],
      "name": "adopt",
      "outputs": [
        {
          "name": "",
          "type": "uint256"
        }
      ],
      "payable": false,
      "stateMutability": "nonpayable",
      "type": "function",
      "signature": "0x8588b2c5"
    },
    {
      "constant": true,
      "inputs": [],
      "name": "getAdopters",
      "outputs": [
        {
          "name": "",
          "type": "address[16]"
        }
      ],
      "payable": false,
      "stateMutability": "view",
      "type": "function",
      "signature": "0x3de4eb17"
    },
    {
      "constant": false,
      "inputs": [
        {
          "name": "movieId",
          "type": "uint256"
        }
      ],
      "name": "like",
      "outputs": [
        {
          "name": "",
          "type": "uint256"
        }
      ],
      "payable": false,
      "stateMutability": "nonpayable",
      "type": "function",
      "signature": "0xe82935da"
    },
    {
      "constant": true,
      "inputs": [],
      "name": "getLikeNum",
      "outputs": [
        {
          "name": "",
          "type": "uint256[16]"
        }
      ],
      "payable": false,
      "stateMutability": "view",
      "type": "function",
      "signature": "0xd96c23fd"
    },
    {
      "constant": true,
      "inputs": [],
      "name": "getLikeTotal",
      "outputs": [
        {
          "name": "",
          "type": "uint256[16]"
        }
      ],
      "payable": false,
      "stateMutability": "view",
      "type": "function",
      "signature": "0xa15ed1bc"
    },
    {
      "constant": true,
      "inputs": [
        {
          "name": "movieId",
          "type": "uint256"
        }
      ],
      "name": "getName",
      "outputs": [
        {
          "name": "",
          "type": "string"
        }
      ],
      "payable": false,
      "stateMutability": "view",
      "type": "function",
      "signature": "0x6b8ff574"
    },
    {
      "constant": false,
      "inputs": [
        {
          "name": "movieId",
          "type": "uint256"
        }
      ],
      "name": "getScore",
      "outputs": [
        {
          "name": "",
          "type": "uint256"
        }
      ],
      "payable": false,
      "stateMutability": "nonpayable",
      "type": "function",
      "signature": "0x0e1af57b"
    }
  ],
  "bytecode": "0x608060405234801561001057600080fd5b50610907806100206000396000f3fe6080604052600436106100af576000357c0100000000000000000000000000000000000000000000000000000000900463ffffffff1680630e1af57b146100b45780633b0a776b146101035780633de4eb171461015257806343ae80d3146101a55780635d47395f14610220578063673402e51461026f5780636b8ff574146102ff5780638588b2c5146103b3578063a15ed1bc14610402578063d96c23fd14610455578063e82935da146104a8575b600080fd5b3480156100c057600080fd5b506100ed600480360360208110156100d757600080fd5b81019080803590602001909291905050506104f7565b6040518082815260200191505060405180910390f35b34801561010f57600080fd5b5061013c6004803603602081101561012657600080fd5b810190808035906020019092919050505061055f565b6040518082815260200191505060405180910390f35b34801561015e57600080fd5b50610167610579565b6040518082601060200280838360005b83811015610192578082015181840152602081019050610177565b5050505090500191505060405180910390f35b3480156101b157600080fd5b506101de600480360360208110156101c857600080fd5b81019080803590602001909291905050506105fa565b604051808273ffffffffffffffffffffffffffffffffffffffff1673ffffffffffffffffffffffffffffffffffffffff16815260200191505060405180910390f35b34801561022c57600080fd5b506102596004803603602081101561024357600080fd5b810190808035906020019092919050505061062f565b6040518082815260200191505060405180910390f35b34801561027b57600080fd5b50610284610649565b6040518080602001828103825283818151815260200191508051906020019080838360005b838110156102c45780820151818401526020810190506102a9565b50505050905090810190601f1680156102f15780820380516001836020036101000a031916815260200191505b509250505060405180910390f35b34801561030b57600080fd5b506103386004803603602081101561032257600080fd5b81019080803590602001909291905050506106e7565b6040518080602001828103825283818151815260200191508051906020019080838360005b8381101561037857808201518184015260208101905061035d565b50505050905090810190601f1680156103a55780820380516001836020036101000a031916815260200191505b509250505060405180910390f35b3480156103bf57600080fd5b506103ec600480360360208110156103d657600080fd5b8101908080359060200190929190505050610743565b6040518082815260200191505060405180910390f35b34801561040e57600080fd5b506104176107b8565b6040518082601060200280838360005b83811015610442578082015181840152602081019050610427565b5050505090500191505060405180910390f35b34801561046157600080fd5b5061046a610803565b6040518082601060200280838360005b8381101561049557808201518184015260208101905061047a565b5050505090500191505060405180910390f35b3480156104b457600080fd5b506104e1600480360360208110156104cb57600080fd5b810190808035906020019092919050505061084d565b6040518082815260200191505060405180910390f35b600080821015801561050a5750600f8211155b151561051557600080fd5b60208260108110151561052457fe5b015460318190555060108260108110151561053b57fe5b015460208360108110151561054c57fe5b015481151561055757fe5b049050919050565b60108160108110151561056e57fe5b016000915090505481565b610581610893565b60006010806020026040519081016040528092919082601080156105f0576020028201915b8160009054906101000a900473ffffffffffffffffffffffffffffffffffffffff1673ffffffffffffffffffffffffffffffffffffffff16815260200190600101908083116105a6575b5050505050905090565b60008160108110151561060957fe5b016000915054906101000a900473ffffffffffffffffffffffffffffffffffffffff1681565b60208160108110151561063e57fe5b016000915090505481565b60308054600181600116156101000203166002900480601f0160208091040260200160405190810160405280929190818152602001828054600181600116156101000203166002900480156106df5780601f106106b4576101008083540402835291602001916106df565b820191906000526020600020905b8154815290600101906020018083116106c257829003601f168201915b505050505081565b6060600082101580156106fb5750600f8211155b151561070657600080fd5b6040805190810160405280600581526020017f6d6f7669650000000000000000000000000000000000000000000000000000008152509050919050565b60008082101580156107565750600f8211155b151561076157600080fd5b3360008360108110151561077157fe5b0160006101000a81548173ffffffffffffffffffffffffffffffffffffffff021916908373ffffffffffffffffffffffffffffffffffffffff160217905550819050919050565b6107c06108b7565b60206010806020026040519081016040528092919082601080156107f9576020028201915b8154815260200190600101908083116107e5575b5050505050905090565b61080b6108b7565b60108080602002604051908101604052809291908260108015610843576020028201915b81548152602001906001019080831161082f575b5050505050905090565b60008082101580156108605750600f8211155b151561086b57600080fd5b60108260108110151561087a57fe5b0160008154809291906001019190505550819050919050565b61020060405190810160405280601090602082028038833980820191505090505090565b6102006040519081016040528060109060208202803883398082019150509050509056fea165627a7a7230582012702875637bece54da2e52615785e7fd9cac3d21593be255a8bc55aca85e8a80029",
  "source": "pragma solidity ^0.5.0;\r\n\r\ncontract Adoption {\r\n\r\n  address[16] public adopters;  // 保存领养者的地址\r\n  uint[16] public likeNum ;  \r\n  uint[16] public likeTotal ;\r\n  string public temp;\r\n  uint tempNum;\r\n\r\n    // 领养宠物\r\n  function adopt(uint petId) public returns (uint) {\r\n    require(petId >= 0 && petId <= 15);  // 确保id在数组长度内\r\n\r\n    adopters[petId] = msg.sender;        // 保存调用这地址 \r\n    return petId;\r\n  }\r\n\r\n  // 返回领养者\r\n  function getAdopters() public view returns (address[16] memory) {\r\n    return adopters;\r\n  }\r\n  \r\n  function like(uint movieId) public returns (uint) {\r\n    require(movieId >= 0 && movieId <= 15);  // 确保id在数组长度内\r\n    likeNum[movieId]++;\r\n    return movieId;\r\n  }\r\n\r\n  // 返回点赞shu \r\n  function getLikeNum() public view returns ( uint[16] memory) {\r\n    return likeNum;\r\n  }\r\n  function getLikeTotal() public view returns (uint[16] memory){\r\n      return likeTotal;\r\n  }\r\n  function getName (uint movieId) public view returns (string memory)\r\n  {\r\n      require(movieId >= 0 && movieId <= 15);\r\n      return \"movie\";\r\n      \r\n  }\r\n  function getScore (uint movieId) public returns (uint){\r\n      require(movieId >= 0 && movieId <= 15);\r\n      tempNum = likeTotal[movieId];\r\n      \r\n      return likeTotal[movieId]/likeNum[movieId];\r\n  }\r\n}\r\n\r\n",
  "sourcePath": "C:/Users/wakaka/Desktop/blockchain/testTruffle/contracts/Adoption.sol",
  "compiler": {
    "name": "solc",
    "version": "0.5.0+commit.1d4f565a.Emscripten.clang"
  },
  "schemaVersion": "3.0.0",
  "updatedAt": "2018-12-31T03:20:05.727Z",
  "devdoc": {
    "methods": {}
  },
  "userdoc": {
    "methods": {}
  }
}