{
  "contractName": "Movie",
  "abi": [
    {
      "constant": true,
      "inputs": [
        {
          "name": "",
          "type": "uint256"
        }
      ],
      "name": "likeNum",
      "outputs": [
        {
          "name": "",
          "type": "uint256"
        }
      ],
      "payable": false,
      "stateMutability": "view",
      "type": "function"
    },
    {
      "constant": true,
      "inputs": [
        {
          "name": "",
          "type": "uint256"
        }
      ],
      "name": "likeTotal",
      "outputs": [
        {
          "name": "",
          "type": "uint256"
        }
      ],
      "payable": false,
      "stateMutability": "view",
      "type": "function"
    },
    {
      "constant": true,
      "inputs": [],
      "name": "temp",
      "outputs": [
        {
          "name": "",
          "type": "string"
        }
      ],
      "payable": false,
      "stateMutability": "view",
      "type": "function"
    },
    {
      "constant": false,
      "inputs": [
        {
          "name": "movieId",
          "type": "uint256"
        },
        {
          "name": "score",
          "type": "uint256"
        }
      ],
      "name": "like",
      "outputs": [
        {
          "name": "",
          "type": "uint256"
        }
      ],
      "payable": false,
      "stateMutability": "nonpayable",
      "type": "function"
    },
    {
      "constant": true,
      "inputs": [],
      "name": "getLikeNum",
      "outputs": [
        {
          "name": "",
          "type": "uint256[16]"
        }
      ],
      "payable": false,
      "stateMutability": "view",
      "type": "function"
    },
    {
      "constant": true,
      "inputs": [],
      "name": "getLikeTotal",
      "outputs": [
        {
          "name": "",
          "type": "uint256[16]"
        }
      ],
      "payable": false,
      "stateMutability": "view",
      "type": "function"
    },
    {
      "constant": true,
      "inputs": [
        {
          "name": "movieId",
          "type": "uint256"
        }
      ],
      "name": "getName",
      "outputs": [
        {
          "name": "",
          "type": "string"
        }
      ],
      "payable": false,
      "stateMutability": "view",
      "type": "function"
    },
    {
      "constant": false,
      "inputs": [
        {
          "name": "movieId",
          "type": "uint256"
        }
      ],
      "name": "getScore",
      "outputs": [
        {
          "name": "",
          "type": "uint256"
        }
      ],
      "payable": false,
      "stateMutability": "nonpayable",
      "type": "function"
    }
  ],
  "bytecode": "0x608060405234801561001057600080fd5b506106c0806100206000396000f3fe60806040526004361061008e576000357c0100000000000000000000000000000000000000000000000000000000900463ffffffff1680630e1af57b146100935780633b0a776b146100e25780635d47395f14610131578063673402e5146101805780636b8ff57414610210578063a15ed1bc146102c4578063b234545814610317578063d96c23fd14610370575b600080fd5b34801561009f57600080fd5b506100cc600480360360208110156100b657600080fd5b81019080803590602001909291905050506103c3565b6040518082815260200191505060405180910390f35b3480156100ee57600080fd5b5061011b6004803603602081101561010557600080fd5b810190808035906020019092919050505061042b565b6040518082815260200191505060405180910390f35b34801561013d57600080fd5b5061016a6004803603602081101561015457600080fd5b8101908080359060200190929190505050610445565b6040518082815260200191505060405180910390f35b34801561018c57600080fd5b5061019561045f565b6040518080602001828103825283818151815260200191508051906020019080838360005b838110156101d55780820151818401526020810190506101ba565b50505050905090810190601f1680156102025780820380516001836020036101000a031916815260200191505b509250505060405180910390f35b34801561021c57600080fd5b506102496004803603602081101561023357600080fd5b81019080803590602001909291905050506104fd565b6040518080602001828103825283818151815260200191508051906020019080838360005b8381101561028957808201518184015260208101905061026e565b50505050905090810190601f1680156102b65780820380516001836020036101000a031916815260200191505b509250505060405180910390f35b3480156102d057600080fd5b506102d9610559565b6040518082601060200280838360005b838110156103045780820151818401526020810190506102e9565b5050505090500191505060405180910390f35b34801561032357600080fd5b5061035a6004803603604081101561033a57600080fd5b8101908080359060200190929190803590602001909291905050506105a3565b6040518082815260200191505060405180910390f35b34801561037c57600080fd5b50610385610625565b6040518082601060200280838360005b838110156103b0578082015181840152602081019050610395565b5050505090500191505060405180910390f35b60008082101580156103d65750600f8211155b15156103e157600080fd5b6010826010811015156103f057fe5b015460218190555060008260108110151561040757fe5b015460108360108110151561041857fe5b015481151561042357fe5b049050919050565b60008160108110151561043a57fe5b016000915090505481565b60108160108110151561045457fe5b016000915090505481565b60208054600181600116156101000203166002900480601f0160208091040260200160405190810160405280929190818152602001828054600181600116156101000203166002900480156104f55780601f106104ca576101008083540402835291602001916104f5565b820191906000526020600020905b8154815290600101906020018083116104d857829003601f168201915b505050505081565b6060600082101580156105115750600f8211155b151561051c57600080fd5b6040805190810160405280600581526020017f6d6f7669650000000000000000000000000000000000000000000000000000008152509050919050565b610561610670565b60108080602002604051908101604052809291908260108015610599576020028201915b815481526020019060010190808311610585575b5050505050905090565b60008083101580156105b65750600f8311155b15156105c157600080fd5b600082101580156105d35750600a8211155b15156105de57600080fd5b816010846010811015156105ee57fe5b016000828254019250508190555060008360108110151561060b57fe5b016000815480929190600101919050555082905092915050565b61062d610670565b6000601080602002604051908101604052809291908260108015610666576020028201915b815481526020019060010190808311610652575b5050505050905090565b6102006040519081016040528060109060208202803883398082019150509050509056fea165627a7a7230582080ecb48f0f0f4c6a5ddb42ccb2e8d12cb6b510cb8b25201c4c9a04484eb6b8ca0029",
  "source": "pragma solidity ^0.5.0;\r\ncontract Movie {\r\n\r\n  uint[16] public likeNum ;  \r\n  uint[16] public likeTotal ;\r\n  string public temp;\r\n  uint tempNum;\r\n    //点赞 \r\n  function like(uint movieId,uint score) public returns (uint) {\r\n    require(movieId >= 0 && movieId <= 15);  // 确保id在数组长度内\r\n    require(score >= 0 && score <= 10);\r\n    likeTotal[movieId] += score;        // +1 \r\n    likeNum[movieId]++;\r\n    return movieId;\r\n  }\r\n\r\n  // 返回点赞shu \r\n  function getLikeNum() public view returns ( uint[16] memory) {\r\n    return likeNum;\r\n  }\r\n  function getLikeTotal() public view returns (uint[16] memory){\r\n      return likeTotal;\r\n  }\r\n  function getName (uint movieId) public view returns (string memory)\r\n  {\r\n      require(movieId >= 0 && movieId <= 15);\r\n      return \"movie\";\r\n      \r\n  }\r\n  function getScore (uint movieId) public returns (uint){\r\n      require(movieId >= 0 && movieId <= 15);\r\n      tempNum = likeTotal[movieId];\r\n      \r\n      return likeTotal[movieId]/likeNum[movieId];\r\n  }\r\n\r\n}\r\n",
  "sourcePath": "C:/Users/wakaka/Desktop/blockchain/testTruffle/contracts/Movie.sol",
  "compiler": {
    "name": "solc",
    "version": "0.5.0+commit.1d4f565a.Emscripten.clang"
  },
  "schemaVersion": "3.0.0",
  "updatedAt": "2018-12-31T03:18:08.677Z",
  "devdoc": {
    "methods": {}
  },
  "userdoc": {
    "methods": {}
  }
}